:100000000EC020C01FC01EC01DC01CC01BC01AC017
:1000100019C018C017C016C015C014C013C01124D1
:100020001FBECFE5D1E0DEBFCDBF11E0A0E6B0E05E
:10003000E8E2F1E002C005900D92A035B107D9F7D2
:1000400037D070C0DDCF88EA91E60197F1F70895C7
:1000500080E593EC0197F1F7089580E593EC019723
:10006000F1F788EA91E60197F1F7089580E593ECBE
:10007000FC013197F1F70197F1F788EA91E60197D2
:10008000F1F70895F3DFF2CF80958F7387BB089562
:10009000833069F028F4813041F0823041F4D8CFC8
:1000A000853021F08A3019F4EDCFCDCFDFCFD5CF19
:1000B00018BA8FE387BB00E010E0E801CC0FDD1F2A
:1000C000CC0FDD1FC05ADF4FC12CD12C5E01FFEFDA
:1000D000AF1ABF0A3E01F501808190E0C816D9062B
:1000E000D4F47E01812C912CF301808190E088165C
:1000F00099066CF4F7018381C7DFF7018281C8DFBD
:10010000FFEF8F1A9F0A84E0E80EF11CEDCFFFEF9E
:10011000CF1ADF0AE0CF8881080F111D0C331105BB
:0801200060F2C9CFF894FFCF93
:1001280002040A3F01010A0005090309010103123B
:100138000101032401010312010103090509020950
:100148000101021201010224010102120101020946
:100158000205023F010102000509032401010312FF
:100168000101030901010312010103240509022405
:100178000101021201010209010102120101022416
:10018800040503380101030001010307010103000D
:10019800040503380101033F0101030701010300BE
:1001A800050903360101032D0101031B0101032D7C
:1001B80001010336050902360101022D0101021B66
:1001C8000101022D010102360205023F0101020070
:1001D8000509031B0101032D010103360101032D4C
:1001E8000101031B0509021B0101022D0101023651
:1001F8000101022D0101021B0205023F010102005B
:100208000209013F0101010001030A3F01020A003E
:00000001FF
